8=FIX.4.4|9=000|35=D|49=CLIENT1|56=HUB|34=1|52=20260105-14:30:00.000|60=20260105-14:30:00.000|11=CLORD123|21=1|55=AAPL|54=1|38=100|40=2|44=150.25|59=0|10=000|
8=FIX.4.4|9=000|35=D|49=HUB|56=BROKER1|34=10|52=20260105-14:30:00.005|60=20260105-14:30:00.000|11=Seq1_from_log|21=1|55=AAPL|54=1|38=100|40=2|44=150.25|59=0|526=CLORD123|10=000|
8=FIX.4.4|9=000|35=8|49=BROKER1|56=HUB|34=21|52=20260105-14:30:00.100|60=20260105-14:30:00.095|37=ORD98765|11=Seq1|17=EXEC1|20=0|150=0|39=0|55=AAPL|54=1|38=100|40=2|44=150.25|14=0|151=100|526=CLORD123|10=000|
8=FIX.4.4|9=000|35=8|49=HUB|56=CLIENT1|34=2|52=20260105-14:30:00.105|60=20260105-14:30:00.095|37=ORD98765|11=CLORD123_from_log|17=EXEC1|20=0|150=0|39=0|55=AAPL|54=1|38=100|40=2|44=150.25|14=0|151=100|10=000|
