# Create new Order
# 35=D (New Order Single) - Broker waits for this from client
8=FIX.4.4|9=122|35=D|34=2|49=CLIENT1|52=20230101-10:00:00|56=BROKER1|11=ORDER123|21=1|40=1|54=1|55=AAPL|59=0|60=20230101-10:00:00|10=000|
# 35=8 (Execution Report) - Broker sends this to client
8=FIX.4.4|9=145|35=8|34=2|49=BROKER1|52=20230101-10:00:05|56=CLIENT1|11=ORDER123|37=FILL456|17=EXEC789|150=0|39=0|54=1|55=AAPL|38=100|44=150.00|151=100|14=0|6=0|10=000|